{
  "_format": "hh-sol-artifact-1",
  "contractName": "MonumentPark",
  "sourceName": "contracts/MonumentPark.sol",
  "abi": [
    {
      "inputs": [],
      "stateMutability": "nonpayable",
      "type": "constructor"
    },
    {
      "anonymous": false,
      "inputs": [
        {
          "indexed": false,
          "internalType": "address",
          "name": "entryAddress",
          "type": "address"
        },
        {
          "indexed": false,
          "internalType": "uint256",
          "name": "distance",
          "type": "uint256"
        },
        {
          "indexed": false,
          "internalType": "uint256",
          "name": "angle",
          "type": "uint256"
        },
        {
          "indexed": false,
          "internalType": "bool",
          "name": "winner",
          "type": "bool"
        }
      ],
      "name": "Entry",
      "type": "event"
    },
    {
      "inputs": [],
      "name": "enter",
      "outputs": [
        {
          "internalType": "address",
          "name": "",
          "type": "address"
        },
        {
          "internalType": "uint256",
          "name": "",
          "type": "uint256"
        },
        {
          "internalType": "uint256",
          "name": "",
          "type": "uint256"
        },
        {
          "internalType": "bool",
          "name": "",
          "type": "bool"
        }
      ],
      "stateMutability": "payable",
      "type": "function"
    },
    {
      "inputs": [],
      "name": "getBalance",
      "outputs": [
        {
          "internalType": "uint256",
          "name": "",
          "type": "uint256"
        }
      ],
      "stateMutability": "view",
      "type": "function"
    },
    {
      "inputs": [],
      "name": "getLotteryId",
      "outputs": [
        {
          "internalType": "uint256",
          "name": "",
          "type": "uint256"
        }
      ],
      "stateMutability": "view",
      "type": "function"
    },
    {
      "inputs": [],
      "name": "getRandomNumber",
      "outputs": [
        {
          "internalType": "uint256",
          "name": "",
          "type": "uint256"
        }
      ],
      "stateMutability": "view",
      "type": "function"
    },
    {
      "inputs": [
        {
          "internalType": "uint256",
          "name": "lottery",
          "type": "uint256"
        }
      ],
      "name": "getWinnerByLotteryId",
      "outputs": [
        {
          "internalType": "address",
          "name": "",
          "type": "address"
        }
      ],
      "stateMutability": "view",
      "type": "function"
    },
    {
      "inputs": [],
      "name": "lotteryId",
      "outputs": [
        {
          "internalType": "uint256",
          "name": "",
          "type": "uint256"
        }
      ],
      "stateMutability": "view",
      "type": "function"
    },
    {
      "inputs": [],
      "name": "owner",
      "outputs": [
        {
          "internalType": "address",
          "name": "",
          "type": "address"
        }
      ],
      "stateMutability": "view",
      "type": "function"
    },
    {
      "inputs": [
        {
          "internalType": "uint256",
          "name": "",
          "type": "uint256"
        }
      ],
      "name": "winners",
      "outputs": [
        {
          "internalType": "address",
          "name": "",
          "type": "address"
        }
      ],
      "stateMutability": "view",
      "type": "function"
    }
  ],
  "bytecode": "0x608060405234801561001057600080fd5b50336000806101000a81548173ffffffffffffffffffffffffffffffffffffffff021916908373ffffffffffffffffffffffffffffffffffffffff1602179055506001600281905550610866806100686000396000f3fe60806040526004361061007b5760003560e01c8063a2fb11751161004e578063a2fb11751461013e578063dbdff2c11461017b578063e580f47b146101a6578063e97dcb62146101d15761007b565b806312065fe0146100805780638da5cb5b146100ab578063900aafaf146100d6578063992f7db314610101575b600080fd5b34801561008c57600080fd5b506100956101f2565b6040516100a29190610558565b60405180910390f35b3480156100b757600080fd5b506100c06101fa565b6040516100cd91906105b4565b60405180910390f35b3480156100e257600080fd5b506100eb61021e565b6040516100f89190610558565b60405180910390f35b34801561010d57600080fd5b5061012860048036038101906101239190610600565b610228565b60405161013591906105b4565b60405180910390f35b34801561014a57600080fd5b5061016560048036038101906101609190610600565b610265565b60405161017291906105b4565b60405180910390f35b34801561018757600080fd5b50610190610298565b60405161019d9190610558565b60405180910390f35b3480156101b257600080fd5b506101bb6102ec565b6040516101c89190610558565b60405180910390f35b6101d96102f2565b6040516101e99493929190610648565b60405180910390f35b600047905090565b60008054906101000a900473ffffffffffffffffffffffffffffffffffffffff1681565b6000600254905090565b60006001600083815260200190815260200160002060009054906101000a900473ffffffffffffffffffffffffffffffffffffffff169050919050565b60016020528060005260406000206000915054906101000a900473ffffffffffffffffffffffffffffffffffffffff1681565b60008060009054906101000a900473ffffffffffffffffffffffffffffffffffffffff16426040516020016102ce9291906106f6565b6040516020818303038152906040528051906020012060001c905090565b60025481565b600080600080662386f26fc1000034101561030c57600080fd5b6000610316610298565b905060006101f4826103289190610751565b905060006101688361033a9190610751565b905060006101988311801561035d575061015e8210158061035c5750600a8211155b5b905061036a838383610477565b8015610424573373ffffffffffffffffffffffffffffffffffffffff166108fc479081150290604051600060405180830381858888f193505050501580156103b6573d6000803e3d6000fd5b503360016000600254815260200190815260200160002060006101000a81548173ffffffffffffffffffffffffffffffffffffffff021916908373ffffffffffffffffffffffffffffffffffffffff1602179055506002600081548092919061041e906107b1565b91905055505b7fe02fcf94d13c1c65024a3ddd1ef5c33e56ca898f3b8ad95f7cbcb9c23ebdec1f338484846040516104599493929190610648565b60405180910390a13383838397509750975097505050505090919293565b61051183838360405160240161048f939291906107f9565b6040516020818303038152906040527f67570ff7000000000000000000000000000000000000000000000000000000007bffffffffffffffffffffffffffffffffffffffffffffffffffffffff19166020820180517bffffffffffffffffffffffffffffffffffffffffffffffffffffffff8381831617835250505050610516565b505050565b60008151905060006a636f6e736f6c652e6c6f679050602083016000808483855afa5050505050565b6000819050919050565b6105528161053f565b82525050565b600060208201905061056d6000830184610549565b92915050565b600073ffffffffffffffffffffffffffffffffffffffff82169050919050565b600061059e82610573565b9050919050565b6105ae81610593565b82525050565b60006020820190506105c960008301846105a5565b92915050565b600080fd5b6105dd8161053f565b81146105e857600080fd5b50565b6000813590506105fa816105d4565b92915050565b600060208284031215610616576106156105cf565b5b6000610624848285016105eb565b91505092915050565b60008115159050919050565b6106428161062d565b82525050565b600060808201905061065d60008301876105a5565b61066a6020830186610549565b6106776040830185610549565b6106846060830184610639565b95945050505050565b60008160601b9050919050565b60006106a58261068d565b9050919050565b60006106b78261069a565b9050919050565b6106cf6106ca82610593565b6106ac565b82525050565b6000819050919050565b6106f06106eb8261053f565b6106d5565b82525050565b600061070282856106be565b60148201915061071282846106df565b6020820191508190509392505050565b7f4e487b7100000000000000000000000000000000000000000000000000000000600052601260045260246000fd5b600061075c8261053f565b91506107678361053f565b92508261077757610776610722565b5b828206905092915050565b7f4e487b7100000000000000000000000000000000000000000000000000000000600052601160045260246000fd5b60006107bc8261053f565b91507fffffffffffffffffffffffffffffffffffffffffffffffffffffffffffffffff82036107ee576107ed610782565b5b600182019050919050565b600060608201905061080e6000830186610549565b61081b6020830185610549565b6108286040830184610639565b94935050505056fea26469706673582212205b1b5531ddc02270b3c616940ab091d30b2849782680c988abe410b96d808a6464736f6c634300080e0033",
  "linkReferences": {},
  "deployedLinkReferences": {}
}