{
  "_format": "hh-sol-artifact-1",
  "contractName": "MonumentPark",
  "sourceName": "contracts/MonumentPark.sol",
  "abi": [
    {
      "inputs": [],
      "stateMutability": "nonpayable",
      "type": "constructor"
    },
    {
      "anonymous": false,
      "inputs": [
        {
          "indexed": false,
          "internalType": "address",
          "name": "entryAddress",
          "type": "address"
        },
        {
          "components": [
            {
              "internalType": "int256",
              "name": "angle",
              "type": "int256"
            },
            {
              "internalType": "int256",
              "name": "distance",
              "type": "int256"
            },
            {
              "internalType": "uint256",
              "name": "pitchX",
              "type": "uint256"
            },
            {
              "internalType": "uint256",
              "name": "pitchY",
              "type": "uint256"
            },
            {
              "internalType": "enum MonumentPark.trajectories",
              "name": "trajectory",
              "type": "uint8"
            }
          ],
          "indexed": false,
          "internalType": "struct MonumentPark.ContactData",
          "name": "contactData",
          "type": "tuple"
        },
        {
          "indexed": false,
          "internalType": "bool",
          "name": "winner",
          "type": "bool"
        }
      ],
      "name": "Entry",
      "type": "event"
    },
    {
      "inputs": [
        {
          "internalType": "int256",
          "name": "x",
          "type": "int256"
        },
        {
          "internalType": "int256",
          "name": "y",
          "type": "int256"
        }
      ],
      "name": "enter",
      "outputs": [
        {
          "internalType": "address",
          "name": "",
          "type": "address"
        },
        {
          "internalType": "bool",
          "name": "",
          "type": "bool"
        }
      ],
      "stateMutability": "payable",
      "type": "function"
    },
    {
      "inputs": [],
      "name": "getBalance",
      "outputs": [
        {
          "internalType": "uint256",
          "name": "",
          "type": "uint256"
        }
      ],
      "stateMutability": "view",
      "type": "function"
    },
    {
      "inputs": [],
      "name": "getLotteryId",
      "outputs": [
        {
          "internalType": "uint256",
          "name": "",
          "type": "uint256"
        }
      ],
      "stateMutability": "view",
      "type": "function"
    },
    {
      "inputs": [
        {
          "internalType": "uint256",
          "name": "lottery",
          "type": "uint256"
        }
      ],
      "name": "getWinnerByLotteryId",
      "outputs": [
        {
          "internalType": "address",
          "name": "",
          "type": "address"
        }
      ],
      "stateMutability": "view",
      "type": "function"
    },
    {
      "inputs": [],
      "name": "lotteryId",
      "outputs": [
        {
          "internalType": "uint256",
          "name": "",
          "type": "uint256"
        }
      ],
      "stateMutability": "view",
      "type": "function"
    },
    {
      "inputs": [],
      "name": "owner",
      "outputs": [
        {
          "internalType": "address",
          "name": "",
          "type": "address"
        }
      ],
      "stateMutability": "view",
      "type": "function"
    },
    {
      "inputs": [
        {
          "internalType": "uint256",
          "name": "",
          "type": "uint256"
        }
      ],
      "name": "winners",
      "outputs": [
        {
          "internalType": "address",
          "name": "",
          "type": "address"
        }
      ],
      "stateMutability": "view",
      "type": "function"
    }
  ],
  "bytecode": "0x608060405234801561001057600080fd5b50336000806101000a81548173ffffffffffffffffffffffffffffffffffffffff021916908373ffffffffffffffffffffffffffffffffffffffff16021790555060016002819055506115f2806100686000396000f3fe6080604052600436106100705760003560e01c8063900aafaf1161004e578063900aafaf146100fc578063992f7db314610127578063a2fb117514610164578063e580f47b146101a157610070565b806312065fe0146100755780637ea00807146100a05780638da5cb5b146100d1575b600080fd5b34801561008157600080fd5b5061008a6101cc565b6040516100979190610d5e565b60405180910390f35b6100ba60048036038101906100b59190610db4565b6101d4565b6040516100c8929190610e50565b60405180910390f35b3480156100dd57600080fd5b506100e6610606565b6040516100f39190610e79565b60405180910390f35b34801561010857600080fd5b5061011161062a565b60405161011e9190610d5e565b60405180910390f35b34801561013357600080fd5b5061014e60048036038101906101499190610ec0565b610634565b60405161015b9190610e79565b60405180910390f35b34801561017057600080fd5b5061018b60048036038101906101869190610ec0565b610671565b6040516101989190610e79565b60405180910390f35b3480156101ad57600080fd5b506101b66106a4565b6040516101c39190610d5e565b60405180910390f35b600047905090565b600080662386f26fc100003410156101eb57600080fd5b6101f3610d04565b60008060006102006106aa565b915091506102446040518060400160405280600581526020017f7069746368000000000000000000000000000000000000000000000000000000815250838361070d565b81846040018181525050808460600181815250506000806102678a8a86866107ac565b91509150610274826107e0565b61027d816107e0565b607861028883610879565b138061029c5750607861029a82610879565b135b15610374576102df6040518060400160405280600a81526020017f535452494b455f4f55540000000000000000000000000000000000000000000081525061089b565b6000866000018181525050600086602001818152505060028660800190600281111561030e5761030d610eed565b5b9081600281111561032257610321610eed565b5b815250507f9d23b479bd03293c9c959cc7bfdc0973091ecbf0c6737e624c9e31e9c5ad812a3387600060405161035a93929190610fea565b60405180910390a1336000975097505050505050506105ff565b6000811315610384576001610387565b60005b94506000610396838388610934565b905060006103a48484610ab5565b90506000610198831380156103df5750606461015e6103c39190611050565b821215806103de57506064600a6103da9190611050565b8213155b5b90508189600001818152505082896020018181525050878960800190600281111561040d5761040c610eed565b5b9081600281111561042157610420610eed565b5b815250506104636040518060400160405280600581526020017f616e676c6500000000000000000000000000000000000000000000000000000081525061089b565b61046c826107e0565b6104aa6040518060400160405280600881526020017f64697374616e636500000000000000000000000000000000000000000000000081525061089b565b6104b3836107e0565b6104f16040518060400160405280600681526020017f77696e6e6572000000000000000000000000000000000000000000000000000081525061089b565b6104fa81610c0d565b80156105b4573373ffffffffffffffffffffffffffffffffffffffff166108fc479081150290604051600060405180830381858888f19350505050158015610546573d6000803e3d6000fd5b503360016000600254815260200190815260200160002060006101000a81548173ffffffffffffffffffffffffffffffffffffffff021916908373ffffffffffffffffffffffffffffffffffffffff160217905550600260008154809291906105ae90611167565b91905055505b7f9d23b479bd03293c9c959cc7bfdc0973091ecbf0c6737e624c9e31e9c5ad812a338a836040516105e793929190610fea565b60405180910390a133819a509a505050505050505050505b9250929050565b60008054906101000a900473ffffffffffffffffffffffffffffffffffffffff1681565b6000600254905090565b60006001600083815260200190815260200160002060009054906101000a900473ffffffffffffffffffffffffffffffffffffffff169050919050565b60016020528060005260406000206000915054906101000a900473ffffffffffffffffffffffffffffffffffffffff1681565b60025481565b60008060006101406106db60008054906101000a900473ffffffffffffffffffffffffffffffffffffffff16610ca6565b6106e591906111de565b905060006101406106f533610ca6565b6106ff91906111de565b905081819350935050509091565b6107a7838383604051602401610725939291906112a8565b6040516020818303038152906040527f969cdd03000000000000000000000000000000000000000000000000000000007bffffffffffffffffffffffffffffffffffffffffffffffffffffffff19166020820180517bffffffffffffffffffffffffffffffffffffffffffffffffffffffff8381831617835250505050610cdb565b505050565b600080600084876107bd91906112e6565b9050600084876107cd91906112e6565b9050818193509350505094509492505050565b610876816040516024016107f49190611389565b6040516020818303038152906040527f4e0c1d1d000000000000000000000000000000000000000000000000000000007bffffffffffffffffffffffffffffffffffffffffffffffffffffffff19166020820180517bffffffffffffffffffffffffffffffffffffffffffffffffffffffff8381831617835250505050610cdb565b50565b600080821215610892578161088d906113a4565b610894565b815b9050919050565b610931816040516024016108af91906113ec565b6040516020818303038152906040527f41304fac000000000000000000000000000000000000000000000000000000007bffffffffffffffffffffffffffffffffffffffffffffffffffffffff19166020820180517bffffffffffffffffffffffffffffffffffffffffffffffffffffffff8381831617835250505050610cdb565b50565b60008061094084610879565b61094986610879565b610953919061140e565b90506109936040518060400160405280600f81526020017f636f6e746163744164646974696f6e000000000000000000000000000000000081525061089b565b61099c816107e0565b600060f06064836109ad9190611050565b6109b791906114a2565b60646109c391906112e6565b9050610a036040518060400160405280601181526020017f636f6e7461637450657263656e7461676500000000000000000000000000000081525061089b565b610a0c816107e0565b6000816005610a1b9190611050565b9050610a5b6040518060400160405280601281526020017f64697374616e63654d756c7469706c696572000000000000000000000000000081525061089b565b610a64816107e0565b6000806002811115610a7957610a78610eed565b5b866002811115610a8c57610a8b610eed565b5b14610aa357600282610a9e91906114a2565b610aa5565b815b9050809450505050509392505050565b600080602d6078606486610ac99190611050565b610ad391906114a2565b610add9190611050565b9050610b1d6040518060400160405280600681526020017f616e676c6558000000000000000000000000000000000000000000000000000081525061089b565b610b26816107e0565b600080821315610b365781610b59565b610b3f82610879565b6064610168610b4e9190611050565b610b5891906112e6565b5b9050610b996040518060400160405280600881526020017f616273416e676c6500000000000000000000000000000000000000000000000081525061089b565b610ba2816107e0565b6000603c8512610bfd57606460b4610bba9190611050565b8213610bde57606460b4610bce9190611050565b82610bd9919061140e565b610bf8565b606460b4610bec9190611050565b82610bf791906112e6565b5b610bff565b815b905080935050505092915050565b610ca381604051602401610c21919061150c565b6040516020818303038152906040527f32458eed000000000000000000000000000000000000000000000000000000007bffffffffffffffffffffffffffffffffffffffffffffffffffffffff19166020820180517bffffffffffffffffffffffffffffffffffffffffffffffffffffffff8381831617835250505050610cdb565b50565b60008142604051602001610cbb929190611590565b6040516020818303038152906040528051906020012060001c9050919050565b60008151905060006a636f6e736f6c652e6c6f679050602083016000808483855afa5050505050565b6040518060a001604052806000815260200160008152602001600081526020016000815260200160006002811115610d3f57610d3e610eed565b5b81525090565b6000819050919050565b610d5881610d45565b82525050565b6000602082019050610d736000830184610d4f565b92915050565b600080fd5b6000819050919050565b610d9181610d7e565b8114610d9c57600080fd5b50565b600081359050610dae81610d88565b92915050565b60008060408385031215610dcb57610dca610d79565b5b6000610dd985828601610d9f565b9250506020610dea85828601610d9f565b9150509250929050565b600073ffffffffffffffffffffffffffffffffffffffff82169050919050565b6000610e1f82610df4565b9050919050565b610e2f81610e14565b82525050565b60008115159050919050565b610e4a81610e35565b82525050565b6000604082019050610e656000830185610e26565b610e726020830184610e41565b9392505050565b6000602082019050610e8e6000830184610e26565b92915050565b610e9d81610d45565b8114610ea857600080fd5b50565b600081359050610eba81610e94565b92915050565b600060208284031215610ed657610ed5610d79565b5b6000610ee484828501610eab565b91505092915050565b7f4e487b7100000000000000000000000000000000000000000000000000000000600052602160045260246000fd5b610f2581610d7e565b82525050565b610f3481610d45565b82525050565b60038110610f4b57610f4a610eed565b5b50565b6000819050610f5c82610f3a565b919050565b6000610f6c82610f4e565b9050919050565b610f7c81610f61565b82525050565b60a082016000820151610f986000850182610f1c565b506020820151610fab6020850182610f1c565b506040820151610fbe6040850182610f2b565b506060820151610fd16060850182610f2b565b506080820151610fe46080850182610f73565b50505050565b600060e082019050610fff6000830186610e26565b61100c6020830185610f82565b61101960c0830184610e41565b949350505050565b7f4e487b7100000000000000000000000000000000000000000000000000000000600052601160045260246000fd5b600061105b82610d7e565b915061106683610d7e565b9250827f7fffffffffffffffffffffffffffffffffffffffffffffffffffffffffffffff04821160008413600084131616156110a5576110a4611021565b5b817f800000000000000000000000000000000000000000000000000000000000000005831260008412600084131616156110e2576110e1611021565b5b827f8000000000000000000000000000000000000000000000000000000000000000058212600084136000841216161561111f5761111e611021565b5b827f7fffffffffffffffffffffffffffffffffffffffffffffffffffffffffffffff058212600084126000841216161561115c5761115b611021565b5b828202905092915050565b600061117282610d45565b91507fffffffffffffffffffffffffffffffffffffffffffffffffffffffffffffffff82036111a4576111a3611021565b5b600182019050919050565b7f4e487b7100000000000000000000000000000000000000000000000000000000600052601260045260246000fd5b60006111e982610d45565b91506111f483610d45565b925082611204576112036111af565b5b828206905092915050565b600081519050919050565b600082825260208201905092915050565b60005b8381101561124957808201518184015260208101905061122e565b83811115611258576000848401525b50505050565b6000601f19601f8301169050919050565b600061127a8261120f565b611284818561121a565b935061129481856020860161122b565b61129d8161125e565b840191505092915050565b600060608201905081810360008301526112c2818661126f565b90506112d16020830185610d4f565b6112de6040830184610d4f565b949350505050565b60006112f182610d7e565b91506112fc83610d7e565b9250827f80000000000000000000000000000000000000000000000000000000000000000182126000841215161561133757611336611021565b5b827f7fffffffffffffffffffffffffffffffffffffffffffffffffffffffffffffff01821360008412161561136f5761136e611021565b5b828203905092915050565b61138381610d7e565b82525050565b600060208201905061139e600083018461137a565b92915050565b60006113af82610d7e565b91507f800000000000000000000000000000000000000000000000000000000000000082036113e1576113e0611021565b5b816000039050919050565b60006020820190508181036000830152611406818461126f565b905092915050565b600061141982610d7e565b915061142483610d7e565b9250817f7fffffffffffffffffffffffffffffffffffffffffffffffffffffffffffffff0383136000831215161561145f5761145e611021565b5b817f800000000000000000000000000000000000000000000000000000000000000003831260008312161561149757611496611021565b5b828201905092915050565b60006114ad82610d7e565b91506114b883610d7e565b9250826114c8576114c76111af565b5b600160000383147f80000000000000000000000000000000000000000000000000000000000000008314161561150157611500611021565b5b828205905092915050565b60006020820190506115216000830184610e41565b92915050565b60008160601b9050919050565b600061153f82611527565b9050919050565b600061155182611534565b9050919050565b61156961156482610e14565b611546565b82525050565b6000819050919050565b61158a61158582610d45565b61156f565b82525050565b600061159c8285611558565b6014820191506115ac8284611579565b602082019150819050939250505056fea264697066735822122008d6ec94d0f40778e5432cea962ffbc0eb53843f8bccf4fd4f0a12be090babda64736f6c634300080e0033",
  "linkReferences": {},
  "deployedLinkReferences": {}
}